:100000000202FC02A202CA02E30308020013C2AF0A
:1000100080FE3212001285D00B75D008FAC28CE532
:100020008A24F7F58AE58C34D8F58CD28CEC241828
:10003000F8E6BC0302747FC39581B4140040CF7905
:1000400004780F16E608700BC2AFE630E1034418DF
:10005000F6D2AF08D9EDEA8BD0300003D20122D519
:100060000DFAC0E0C0D0C0F0C083C082C000C001A3
:10007000C002C003C004C005C006C007E50C2324AD
:1000800010F87440C2AF46F6D2AFD200E50CFF23A1
:100090002410F80F0808EFB50C0A10010743870178
:1000A00000000000BF04047F007810E630E4E400A4
:1000B000E50CC39F5020050C7417250CF8E6FDA62F
:1000C0008108E6AE0CBE0302747FCDF8E86D60E0F7
:1000D00008E6C0E080F6E50CD39F4027E50C241825
:1000E000F8E6AE0CBE0302747FFD18E6CDF8E5819C
:1000F0006D6006D0E0F61880F5E50C2417C8F615FB
:100100000C80D3750D01E50C232410F87F04C2AFD9
:10011000E610E61E30E00310E20C7F0030E107300D
:10012000E3047F0854F4547CC6D2AF54804207C223
:100130000022F6D2AFD007D006D005D004D003D02D
:1001400002D001D000D082D083D0F0D0D0D0E0C295
:1001500000227817A68174036006FF08767FDFFB14
:100160007F04E4780FF608F608DFFA78107630900E
:100170000003740193C0E0E493C0E0750D0143896E
:1001800001758AF0758CD8D28CD2AFD2A92203EF38
:10019000D3940340037FFF2274102F2FF8E620E54D
:1001A000F4C2AFE64430F6D2AFAE0CEEC39F50219E
:1001B0000E74172EF8E6F908E618BE0302747FFDE8
:1001C000ED69600909E71919F7090980F316168026
:1001D000DAEED39F400405810581EED39F4022745F
:1001E000172EF808E6F9EEB50C02A981180606E606
:1001F000FDED6960091919E70909F71980F31E80F7
:10020000D9EF2417F8E604F8EF2F0490000393F6D3
:1002100008EF2F93F67F00228FF0E4FFFEE50C231A
:10022000240FF8C2A930F70D7F08E6600B2DF660A9
:10023000325030800730F106EDF660277E0208303C
:10024000F010C2AFE610E7250E30E20CD2AF7F040B
:100250008014C2AFE610E71554EC4EF6D2AFD2A927
:1002600002008A7F0808EF4483F4C2AF56C6D2AFBB
:10027000D2A954804FFF22BB010689828A83E022E3
:100280005002E722BBFE02E32289828A83E49322A2
:10029000BB010689828A83F0225002F722BBFE014D
:1002A000F3227F0112018F7F0212018F7F0312015F
:1002B0008F758001AF807801EF08800103D8FDF5CC
:1002C000807DFA7F8012021880EA759001AF9078E5
:1002D00001EF08800103D8FDF5907DFA7F801202BE
:1002E0001880EA75A001AFA07801EF08800103D85B
:1002F000FDF5A07DFA7F8012021880EA787FE4F68F
:10030000D8FD7581200201527DFA7F80120218808B
:01031000F7F5
:00000001FF
