:02224A002188E9
:02225100201D4E
:022258001B5910
:02225F00220F4C
:01224C000091
:01225300008A
:01225A000281
:01226100007C
:01224D00018F
:012254000089
:01225B00037F
:01226200007B
:01224E00008F
:012255000187
:01225C00027F
:012263000377
:02224F0003B3D7
:02225600040082
:02225D0000007F
:02226400043242
:0121EF0000EF
:0121F00000EE
:0121F10000ED
:0121F20000EC
:0121F30000EB
:0121F40000EA
:0121F50000E9
:0121F60000E8
:0121F70000E7
:0121F80000E6
:0121F90000E5
:0121FA0000E4
:0121FB0000E3
:0121FC0000E2
:0121FD0000E1
:0121FE0000E0
:0121FF0000DF
:0122000000DD
:0122010000DC
:0122020000DB
:0122030000DA
:0122040000D9
:0122050000D8
:0122060000D7
:0122070000D6
:0122080000D5
:0122090000D4
:01220A0000D3
:01220B0000D2
:01220C0000D1
:01220D0000D0
:01220E0000CF
:0300000002226673
:1022660078FFE4F6D8FD9000007FFF7E04E4F0A33B
:0A227600DFFCDEFA75816902229A8E
:101E37000C1B5B313B33326D007461736B7325642C
:101E47000A00257300202573000D0A001B5B313B38
:101E570033353B34306D20676F6F64212121201BA0
:101E67005B313B33376D2048656C6C6F2C4E5346A6
:101E77006F637573200A0031333A32353A353600CD
:0C1E87004F6374203135203230313700B9
:1021CF009002F8E0FEA3E0F5828E83E0F9A3E0FA37
:1021DF00A3E0900384C9F0A3EAF0A3E9F07BFF2208
:101B5900E4900380F0121BC2E4900380F07D64E4FA
:101B6900FF120D97900380E004F0E0C3940A40ED62
:101B79007BFF7A1E79371205C812212E900384E45F
:101B8900F0A3EFF07BFF7A1E79401205C81221CF2E
:101B99007A1E79491205C8121BC21221CF7A1E7901
:101BA9004C1205C87BFF7A1E79501205C87BFF7A53
:091BB9001E79531205C8021B5EDF
:0C1BC2007A027BF87DFF7F11120D972244
:10228000439840439810438E01438E0475D6FF75E2
:0A229000D7C3438E107F04021D1017
:10201D009003AB74FFF0A3741EF0A3747EF09003D5
:10202D00A9E4F0A304F09003A9E0FCA3E0FD7BFF7D
:10203D00E4FF120F5F9003AAE004F070069003A96D
:10204D00E004F07C037DAB7BFF7F01120F5F80D638
:102188009003B074FFF0A3741EF0A37487F07A0371
:102198007BAE7DFF7F10120D977C037DB07BFF7FA8
:0621A80001120F5F80E848
:10220F007FF07E0A121A551222807F01120B3EE4D4
:0E221F00FF120B3E7F02120B3E7F030212895C
:10229A00E5A2543F4480F5A2438E40438E80D299F2
:0522AA007F030210FD9E
:07000300F52674D40213B2CC
:07001300F52674D60213B2BA
:07001B00F52674D70213B2B1
:07002300F52674D80213B2A8
:07002B00F52674D90213B29F
:07004300F52674DC0213B284
:07004B00F52674DD0213B27B
:07005300F52674DE0213B272
:07005B00F52674DF0213B269
:07006300F52674E00213B260
:07008300F52674E40213B23C
:07008B00F52674E50213B233
:07009300F52674E60213B22A
:07009B00F52674E70213B221
:0700A300F52674E80213B218
:101F89000100000200000400000800001000002009
:101F99000000000000000000000001000002000134
:101FA9000000020000000400000000000000000022
:101FB900000400000008000010000020000040009C
:0B1FC90000000000000000000000000D
:05000E00D21CD21D22EE
:03000B000208C226
:0922C3004387010000000080F7D0
:1021AE005254582D353120286329204D4554544C16
:1021BE00455220262046554348532041472058017A
:0121CE00FE12
:10006A00F00582240FF0058204F00582240FF004C3
:07007A00C5822405C58222A6
:0D003200F00582F02410C5822407C582224B
:0822CC00E4F00582D5F0FA22CE
:0722D400F00582D5F0FA22AB
:1010FD0012000E754900301C09754C00301D03752A
:10110D004F00301C09301D03854FAF854C8F85492D
:10111D00A8E47820F608B822FBE47826F608B8494A
:10112D00FBC211C213C212C216C214C215C227C20B
:10113D0028C217C21AC21B8F2990020074F4C394DF
:10114D0000F5F01222CC9001007400C39400F5F06C
:10115D001222CC7401600BD21A90000075F00012AF
:10116D0022CC7401600BD21B90030075F08012220B
:10117D00CC744CF534F535745CF537F538746CF585
:10118D003AF53B747CF53DF53E7545EF90028E7456
:10119D000075F00812006AD5F0FA9002927400758D
:1011AD00F008120032D5F0FA75F02074EF9002D4E9
:1011BD001222D475830274D42401F58274E0F07583
:1011CD00F01374FF9001331222D475F01374FF9055
:1011DD0001591222D475F01374EF9001461222D4E6
:1011ED0075F01374EF9001201222D475830275826D
:1011FD00F475F00305F074FF1222D474006002D26E
:10120D001674006005D2177500009021EF740193DC
:10121D0060037FFF227E4E7F20121A55D21075205B
:10122D00DFAF29120B3EEF60037FFF22901F897401
:10123D000175F003A4F875490043498085494A8535
:10124D00494BE893424A424B8549A8301C29754CBD
:10125D0000754D00754E0008E893424D424E854C89
:10126D008F301D13754F0075500075510008E893B0
:04127D004250425148
:08128100854FAFC2100200AA64
:1008C200301203D28D32C2AFD212D2AF301C0930F5
:1008D2001D03854FAF854C8F8549A812000A201051
:1008E200037520E0C0D0C0E0E8C0E0C083C082A2AF
:1008F20018C0D0201802C211E58CC39463400302D1
:100902000A5E0548E548B4FF03754800D218200482
:100912000F301C09301D038550AF854D8F854AA8C5
:10092200758246301C09301D03854FAF854C8F857B
:1009320049A8758301E582B43303020A1A1582E0DD
:10094200B548F274FFF08926858227E5822413F5E3
:1009520082E0F521541F23232400F582758302E0EF
:1009620054F7F0121BCE600B1220FA121E93600392
:10097200121D78E521541F2459F582758301E5483B
:10098200F0E521121F39D211A926200C34E5215499
:100992000FF874002828F582758301E0F80582E0DB
:1009A2008883F58274040582F085278220040F3043
:1009B2001C09301D038550AF854D8F854AA8020959
:1009C2002520093920081B750F0485278220040F72
:1009D200301C09301D038550AF854D8F854AA80212
:1009E200092575170485278220040F301C09301D44
:1009F200038550AF854D8F854AA8020925751F04CE
:100A020085278220040F301C09301D038550AF85D5
:100A12004D8F854AA8020925301C09301D03854FD8
:100A2200AF854C8F8549A87401B4010C202707D2E9
:0A0A320014D211020A3AD228C2AF12
:100A3C00C28C75826C7583010582E0258AF58A1556
:100A4C0082E0358CF58C5006758CFF758ACDD2AF53
:100A5C00D28CD21820040F301C09301D038550AFE6
:100A6C00854D8F854AA8301C09301D03854FAF85F5
:100A7C004C8F8549A8C2AFE5316053C39403F5315F
:100A8C00246EF582758301E089288A29B4F00E055D
:100A9C00820582E0F8D2AF1219CF020AD4B4F10E5B
:100AAC0005820582E0F8D2AF121826020AD4B4F2FD
:100ABC0009D214D211D2AF020AD4F80582E0F9059A
:100ACC0082E0FAD2AF1214A4A928AA298084D0D02B
:100ADC009218D082D083D0E0F8D0E0D0D030110280
:100AEC00D21330100320182D20111DC21220100318
:100AFC007520EF20040F301C09301D038551AF8584
:100B0C004E8F854BA8D2AF22C2122010037520EF56
:100B1C00D2AF0200AAC2122010037520EF20040FDE
:100B2C00301C09301D038550AF854D8F854AA8D2E6
:020B3C00AF22E6
:101A5500301C09301D03854FAF854C8F8549A8C3C0
:101A6500EF94E8EE94034009D3EF9440EE949C4044
:101A7500157FFF20040F301C09301D038551AF85EC
:101A85004E8F854BA822EFF42401FFEEF43400FEBF
:101A950075830175826CEEF0EF0582F0C28CC28D04
:101AA50075830175826CE0F58C0582E0F58AE58821
:101AB50054FF4400F588E58954F04401F589D28C3A
:101AC5007F0020040F301C09301D038551AF854E62
:051AD5008F854BA822E3
:100B3E00301C09301D03854FAF854C8F8549A8D2D7
:100B4E001820040F301C09301D038550AF854D8FC2
:100B5E00854AA875830274F42FF582E0C394FF6072
:100B6E0003020D699022437800E5822407F582E5A1
:100B7E00833400F583740493C39F600708B804E9B7
:100B8E00020D69740393F8740093FA740193FB7465
:100B9E000293FC740593FD740693FEE8C394036000
:100BAE0003020CB8ECB40157301C09301D03854FFD
:100BBE00AF854C8F8549A8900130E0B4EF3E74D0DC
:100BCE00FCF0791020040F301C09301D038550AF46
:100BDE00854D8F854AA8750F00780074002404F6A1
:100BEE000876007400243108F630170308A6007446
:100BFE00002403F8EBF608EAF6020D38020D69B48C
:100C0E000254301C09301D03854FAF854C8F85492A
:100C1E00A8900131E0B4EFE474D1FCF07911200416
:100C2E000F301C09301D038550AF854D8F854AA8A6
:100C3E00751700785274522404F608760074002456
:100C4E003108F630170308A60074522403F8EBF6A9
:100C5E0008EAF6020D38301C09301D03854FAF85AA
:100C6E004C8F8549A8900132E0B4EF9074D2FCF01D
:100C7E00791220040F301C09301D038550AF854DAD
:100C8E008F854AA8751F00780074002404F6087634
:100C9E00007400243108F630170308A600740024EF
:100CAE0003F8EBF608EAF6020D38301C09301D0386
:100CBE00854FAF854C8F8549A87900900120E0B40F
:100CCE00EF03020CDBA309B910F4020D6989F0E8F9
:100CDE00030345F0FCF020040F301C09301D038582
:020CEE0050AF05
:100CF000854D8F854AA875830174002929F582EDF9
:100D0000F0A3EEF08D8304F582E4F0E582240BF588
:100D100082E4F0A3746BF0EE2412F582EBF0A3EA08
:100D2000F0EE240FF582EDF0A3EE241224202431FE
:100D3000F0301704A3E500F0E923232400F58275C1
:100D40008302E4F0A3F0A3F0A3F075830274F42F00
:100D5000F582E9F075830174EC29F582EFF0EC126D
:100D60001F397F00C2130200AA301C09301D038501
:100D70004FAF854C8F8549A87FFF301105C2130204
:100D800000AAC21820040F301C09301D038551AF82
:070D9000854E8F854BA82260
:1013B200301C09301D03854FAF854C8F8549A8121B
:1013C200000A8827892885D02985832A85822BF5DA
:1013D20082758302E0F521541F23232400F5821233
:1013E200222D1220FA121E936003121D78300C0374
:1013F20002142AE521121F39E521540FF87400283E
:1014020028F582758301E0F80582E08883F582740D
:10141200020582F0E526A827A9288529D0852A83F6
:10142200852B82D2130200AA201203301029A8278A
:10143200A92885263F85F040852B42852A418529AA
:1014420044A2189219858143853246850047301798
:1014520003850000852045D21020091720080A754F
:10146200D008C218780002147C75D010C2187852C5
:1014720002147C75D018C2187800868130160FC20B
:10148200AF0886A08632088600D2AF0214920808FE
:1014920030170908E6C2AF120000D2AF8521207FC3
:0214A200022224
:01000A0032C3
:100D9700301C09301D03854FAF854C8F8549A8D27C
:100DA70018EDFC20040F301C09301D038550AF855A
:100DB7004D8F854AA8E520541F23232400F582750B
:100DC7008302EF20E705BC00027CFF301C09301DC1
:100DD70003854FAF854C8F8549A8D026D02730E6AD
:100DE700051222AF7066EF30E43320E30E858328C7
:100DF700858229121949701C020E8F8583288582E6
:100E070029121CA5700E8528838529821222DB7F73
:100E170005020E55852883852982B40164EF30E5E4
:100E27000312205DEF30E709ECFA1220C6604E800E
:100E37000CBCFF028007ECFA121DD96032C027C034
:100E4700262004057B00021ADA0218BD7F03C0279B
:100E5700C026201115C21820040F301C09301D03AD
:100E67008551AF854E8F854BA822C2130200AA85F4
:100E770020211220FA121E936003121D787F04802E
:100E8700CD1222DB7FFF80C6E014F005820582E0E9
:100E9700A982F582758300E0FE05825382EFE0FFA9
:100EA700E5820454EF8982758302F0D2AF8A838B7F
:100EB70082EEF0A3EFF08528838529821222DB19C1
:100EC7008982758302E070047F01808214F00582B5
:100ED70005820582A982E0F582758300E0F521E5A8
:100EE70082540FB40F07E58254F0020EF7E582042F
:100EF7008982758302F0E521541F23232400F5829C
:100F070075830212222D0582E0547FF0E52120E44B
:100F170022540FF5F0740025F025F0F58275830152
:100F2700E0F5F00582E085F083F58274060582F02E
:100F3700020F4F20E10F20E006750F06020F4F75D5
:100F47001706020F4F751F06E521121F397F01C0D3
:080F570027C026C2130200AA04
:100F5F00301C09301D03854FAF854C8F8549A8EB99
:100F6F00FAEDFEECFDEFFCD21820040F301C093017
:100F7F001D038550AF854D8F854AA8ECD39407404C
:100F8F00147FFF301C09301D03854FAF854C8F85B3
:100F9F0049A8020FF6ECC403248CF5827583023046
:100FAF001C09301D03854FAF854C8F8549A8C2AFF3
:100FBF00E020E75030E305D2AF0210C704F00582FE
:100FCF0005820582E00454EFA882758300F582ED57
:100FDF00F0E5820454EF7583028882F0F582758301
:100FEF0000EEF0D2AF7F00201115C21820040F3091
:100FFF001C09301D038551AF854E8F854BA822C22A
:10100F00130200AA04F005820582E0F5F00454EF04
:10101F00F075830085F082E0F521D2AF541F2323B2
:10102F002400758302F582E054FEF0D026D02712FB
:10103F00222D1220FAC027C026E52120E42C540FC0
:10104F00F5F0740025F025F0F582758301E0F5F0D9
:10105F000582E085F083F58274010582F00582E058
:10106F00F8A3E0F58388820210A020E11B20E00C9A
:10107F00750F01850D83850E820210A075170185EE
:10108F0015838516820210A0751F01851D83851E8D
:10109F0082EDF0A3EEF0E521D026D027121F39C044
:1010AF0027C0267F00C2130200AA7FFF020FF6C0DF
:1010BF0027C0267FFF020FF6EA60EFD026D0271257
:1010CF001EE970EB1220C6C027C02620041A200488
:1010DF000F301C09301D038550AF854D8F854AA8F1
:0E10EF007B01021ADA020FA40218BD020FA440
:10164400301C09301D03854FAF854C8F8549A8D2C6
:1016540018EFD3940340057FFF020FF675830274DD
:10166400F42FF582E0B4FF057FFF020FF6FF7583C8
:101674000174202FF582E0FEEF23232400F5827508
:101684008302E020E21020E7084480F07F00020F8C
:10169400F67FFF020FF68E21D026D02712222D12BC
:1016A40020FA121E936003121D78C027C026EE2074
:1016B400E41F8FF0740025F025F0F582758301E0B6
:1016C400F80582E08883F58274030582F0EE021047
:1016D400A720E11120E007750F03EE0210A775178C
:0C16E40003EE0210A7751F03EE0210A712
:10157700301C09301D03854FAF854C8F8549A8D294
:1015870018EF30E30454F060057FFF020FF6EF54C5
:1015970007C403248C2407F582758302E0F5F01550
:1015A70082E0B5F01AEF540724CCF582758302E088
:1015B70060057FFF020FF67401F07F00020FF6F55A
:1015C700F0540FB40F06E5F054F08003E5F004F093
:1015D70085F082758303E0F521541F23232401F549
:1015E70082758302E0547FF01582E054FEF0D02626
:1015F700D02712222D1220FAC027C026E52120E489
:1016070024540FF5F0740025F025F0F58275830159
:10161700E0F5F00582E085F083F58274050582F038
:10162700E5210210A720E10F20E006750F05021043
:0D163700A77517050210A7751F050210A763
:10128900301C09301D03854FAF854C8F8549A8D285
:1012990018EFD3940340057FFF02139575830274F9
:1012A900F42FF582E0B4FF057FFF021395FF74FF69
:1012B900F075830174202FF582E0FEC39520603E0E
:1012C90074EFF0EF23232400F582758302E0540FB5
:1012D900705E0582E030E7051582021339EEB545E7
:1012E9001A7545EF9002D478198E21E0B52103745F
:1012F900EFF00582D8F57F0002139502136D74EFA4
:10130900F03004159002D478198E21E0B5210374C8
:10131900EFF00582D8F50218BDC2109002D47819F1
:101329008E21E0B5210374EFF00582D8F50200AAF9
:10133900D026D0278E2112222D121BCE600B12200F
:10134900FA121E936003121D78C027C0269002D49A
:1013590078198E21E0B5210374EFF00582D8F57F65
:1013690000021395D026D0278E2112178EC027C0D0
:101379002660057FFF0213959002D478198E21E02B
:10138900B5210374EFF00582D8F57F00201115C24D
:101399001820040F301C09301D038551AF854E8F6D
:0913A900854BA822C2130200AA20
:10178E00200F2D200E1579347A358535287B33754B
:10179E00295B7C4BE533704502181879377A38850A
:1017AE0038287B3675296B7C5BE53670300218184D
:1017BE00200E15793A7A3B853B287B3975297B7C3F
:1017CE006BE5397018021818793D7A3E853E287BF4
:1017DE003C75298B7C7BE53C7003021818758302DF
:1017EE00E7F582E0C582B52901EC04F7C582B52183
:1017FE0005EBF816E422F5F0E0C5F0F0E582B52829
:10180E000CEAF8E6B52901EC04F6740122B52901BB
:08181E00EC04F582E5F080D630
:10209200EFD3941840037401229021EFEF93700361
:1020A200740122901F89EF75F003A4F893547FF90D
:1020B20008E893FA08E893FBE4494A4B7003740179
:0420C2002274002262
:101D1000301C09301D03854FAF854C8F8549A8D2F3
:101D200018D026D027122092C027C02660057FFF3A
:101D3000021D54C2AF7F00E944804249424A424BEF
:101D4000301C11EA424C424D424E301D07EB424FCF
:101D500042504251301C09301D03854FAF854C8FD6
:101D60008549A8C21820040F301C09301D03855175
:081D7000AF854E8F854BA822C0
:101C3A00301C09301D03854FAF854C8F8549A8D2CA
:101C4A0018D026D027122092C027C02660057FFF11
:101C5A00021C81C2AF7F00E9F444805249524A52C1
:101C6A004B301C13EAF4524C524D524E301D08EBC5
:101C7A00F4524F52505251301C09301D03854FAF58
:101C8A00854C8F8549A8C21820040F301C09301DC5
:0B1C9A00038551AF854E8F854BA822BB
:10212E00301C09301D03854FAF854C8F8549A8D2D1
:10213E0018E520541F75830124ECF582E0FFC218C8
:10214E0020040F301C09301D038551AF854E8F853D
:03215E004BA82269
:1018BD00E820010D20000578000218D0785202189A
:1018CD00D07800A68108A63208A60030170308A616
:1018DD0000F8E545B4EF057FFF02192A301709E539
:1018ED0000C2AF120000D2AF7FFFE53F8540F0850B
:1018FD004183854282A21992188544D08543813057
:10190D00160DC2AF8546A0854632854700D2AF85FC
:10191D0045207545EF20180AD2130200AAC2100205
:10192D0000AAD211300502C21020040F301C09305C
:0C193D001D038550AF854D8F854AA82200
:101ADA00E520540FF5F0740025F025F0F5827583A2
:101AEA0001E0F5F00582E0F58285F08374FF058256
:101AFA00F075F00CBB010F0582EEF00582EDF005E2
:101B0A0082ECF075F009E58225F0F582E581F005B1
:101B1A00827400F00582E532F00582E500F0058264
:101B2A00301703E500F0E581C39469F5F0E58225F5
:101B3A00F0F582D0E0F01582D5F0F8301C09301D9E
:0F1B4A0003854FAF854C8F8549A8C2100200AAB2
:1000AA0020102BC211E53C701D75816975D000D2F4
:1000BA001820040F301C09301D038550AF854D8F61
:1000CA00854AA802031D02032CD213C21822200457
:1000DA00F8C211D21820040F301C09301D038550B4
:1000EA00AF854D8F854AA8F52C85D03085F02E3006
:1000FA001C09301D03854FAF854C8F8549A8C21551
:10010A00E4B53C0BB53909B53607B5330574FC04BB
:10011A000404B4FF0302013F03038520F053F0C037
:10012A00C5F0C395F05003020183301408E520544A
:10013A00C045F06044E52C8530D0852EF0301C098E
:10014A00301D03854FAF854C8F8549A8201115C2F4
:10015A001820040F301C09301D038551AF854E8FBE
:10016A00854BA822301C09301D03854FAF854C8F63
:10017A008549A80200AA02023C301408E52054C0AE
:10018A007002D215C21420040F301C09301D0385D9
:10019A0050AF854D8F854AA8E52C852EF03013D6B1
:1001AA0085832C85822DF52E85F02FE520540FF5B9
:1001BA00F0740025F025F0F582758301E0F5F0056D
:1001CA0082E0F58285F083E52EF00582EFF0058264
:1001DA00EEF00582EDF00582ECF00582EBF0058287
:1001EA00EAF00582E9F00582E8F00582E52FF005DC
:1001FA0082E52CF00582E52DF00582E530F00582D6
:10020A00E581F0058274FFF00582E532F00582E5AA
:10021A0000F00582301703E500F0E581C39469F523
:10022A00F0E58225F0F582D0E0F01582D5F0F802EB
:10023A000291E520540FF5F0740025F025F0F582BF
:10024A00758301E0F5F00582E0F58285F083EF051C
:10025A0082F0E582240CF582E581F005827400F0D3
:10026A000582E532F00582E500F00582301703E5E4
:10027A0000F0E581C39469F5F0E58225F0F582D0B6
:10028A00E0F01582D5F0F8301C09301D03854FAF18
:10029A00854C8F8549A82015597583022007292086
:1002AA0006130533E53414B44B02745BF582F53456
:1002BA00E520F0803A0536E53714B45B02746BF535
:1002CA0082F537E520F080272006130539E53A1430
:1002DA00B46B02747BF582F53AE520F08011053C97
:1002EA00E53D14B47B02748BF582F53DE520F002FE
:1002FA000309D026D027E520121F39C027C026209F
:10030A00040F301C09301D038550AF854D8F854A77
:10031A00A8C210301C09301D03854FAF854C8F854C
:10032A0049A8E4B53C61B53949B53631B5331974D4
:10033A00EFF52020040F301C09301D038551AF85CD
:10034A004E8F854BA80222C31533853482758302EA
:10035A00E534B45B0375344B0534E0803D153685CE
:10036A003782758302E537B46B0375375B0537E06F
:10037A0080281539853A82758302E53AB47B03757C
:10038A003A6B053AE08013153C853D82758302E598
:10039A003DB48B03753D7B053DE0D210F52030045A
:1003AA005020011720000A75D008D21878000203DD
:1003BA00CC75D010D21878520203CC75D018D21846
:1003CA007800868130160FC2AF0886A0863208866A
:1003DA0000D2AF0203E2080830170D08E6C2AF8F59
:0603EA0026120000AF2600
:1003F000D2AFBF06030210FAC2182275D000D2187D
:1004000020040F301C09301D038550AF854D8F85AA
:100410004AA8E520540FF5F0740025F025F0F58288
:10042000758301E0F5F00582E085F083F52C301747
:10043000157581692411F582E0C2AF85832612000B
:1004400000852683D2AFE52C240EF582E0B4FF03AD
:100450000204A21582E0C39469F5F0852C8205821E
:10046000E0FFBF060C0582E0FE0582E0FD0582E0AC
:10047000FC301614E52C240FF582C2AFE0F5A0F590
:10048000320582E0F500D2AFE52C2412F5827581A9
:1004900069E00582C0E0D5F0F8BF06030205450219
:1004A000051E852C82E00582F52DE00582FFE00522
:1004B00082FEE00582FDE00582FCE00582FBE005AE
:1004C00082FAE00582F9E00582F80582058205825C
:1004D0000582E0C39469F5F030161205820582C2E8
:1004E000AFE0F5A0F5320582E0F500D2AFE52C24AF
:1004F00012F582758169E00582C0E0D5F0F8E52C3F
:100500002409F582E0F5F00582E0F52C0582E0F59E
:100510002E0582E0F5D0852C83852E82E52D301CBA
:1005200009301D03854FAF854C8F8549A820112ABE
:10053000C21820040F301C09301D038551AF854EB1
:100540008F854BA82220040F301C09301D038550D5
:0D055000AF854D8F854AA80210F40200AA65
:1022AF00E020E70ABC0002E4224404F0E422547F59
:0422BF00F074012294
:0522DB00E054FBF022BD
:10194900A883A9825407C4F5F003248CF582758312
:1019590002C2AFE01430E708BC00077401D2AF221D
:10196900E422301A03B4EF057402D2AF22F0D2F0A8
:10197900E583C8F583E582C9F582E0548F45F0F027
:1019890088838982058205820582E00454EFF0F597
:1019990082758300E520F0D2AF2004238520F0531F
:1019A900F00F758301740025F025F0F582E0F8A3A6
:1019B900E08883F582A3A3EBF0A3EAF00219CCEA4D
:0619C900FDEBFE7401229B
:101E9300E030E0420582E0158220E73AE054FEF0AC
:101EA300547003248CF582758302C2AFE004F005FD
:101EB300820582E0A882F582758300E0A982888288
:101EC300C90454EF758302F0758300F582C9F8B530
:101ED3002109E4D2AF227401D2AF22E0C8F0058217
:061EE3005382EFE880E9E4
:101EE9000582301A48E020E44404F0E5822404F530
:101EF90082E0F5F0540FB40F07E5F054F0021F0C1F
:101F0900E5F004F0F582758300E520F0541F2323E2
:101F19002400F582758302ECC45470F5F0E0548F07
:101F290045F0F00582E04480F01582E42274012234
:101BCE00E020E04D0582E030E745547FF01582E0DD
:101BDE00547003248C04F582758302E014F00582A0
:101BEE0005820582E0A882F582758300E0F9E58220
:101BFE00540FB40F06E58254F08003E5820475831A
:101C0E00028882F0758300F582E9B52107E422157A
:101C1E0082740122E0C9F0E582540FB40F06E5820A
:0C1C2E0054F08003E58204F582E980DEBA
:101CA500A883A9825407F5F024CCF582758302E058
:101CB5007006BC0009740122E4F022740222301B74
:101CC500FAE5F0C4032407248CF582758302E0FD50
:101CD500540FB40F05ED54F08002ED04FD1582E0BC
:101CE500C39D60D70582E0CDF08D82758303E52025
:101CF500F0E5F0C4D2E0F5F088838982E0548F45A1
:0B1D0500F0F00582E04480F074012241
:101D7800E030E0440582E030E73E547FF01582E031
:101D880054FEF0547003248C2406F582758302E017
:101D9800A882F582758303E0F9E582540FB40F0633
:101DA800E58254F08003E582047583028882F07529
:101DB8008303F582E9B5210122E0C9F0E582540FD9
:101DC800B40F06E58254F08003E58204F582E980C9
:011DD800E426
:1020C600EA602CB4FF030220F7E04408F0E5205450
:1020D6001F2433F582E5482A3400B4FF02740075E4
:1020E6008301F0E5822413F582E520F0740122E4F1
:0420F600227402222C
:101DD900E04408F0AD82E520541F2459F58275834B
:101DE90001E0B4FF02E548F5F0E548C395F0C39A70
:101DF900500DE5F02A3400B4FF027400B54819E526
:101E090020541F2459F582758301E548F08D8275A8
:101E19008302E054F7F0E422CAE582C39426F582EE
:0E1E2900CAF0E5822413F582E520F074012250
:10222D00E030E31854F7F0A882E521541F2433F56C
:0D223D008275830174FFF075830288822290
:10205D00BC000122E04402F0A8820582E0C2AF423A
:10206D004B300402424A301C170582E0424E3004C8
:10207D0002424D301D0A0582E042513004024250A9
:05208D00D2AF888222A1
:1020FA00E030E12C54F9F0A882A3E0547FF4C2AF97
:10210A00524B524A301C11A3E0F4524E524D301D2C
:10211A0007A3E0F452515250D2AF7583028882224B
:04212A0054FBF02250
:1019CF0075830274F428F582E0B4FF0122F8758361
:1019DF0001742028F582E0FAE823232400F58275AC
:1019EF008302E020E20820E7044480F022228A21CB
:1019FF00D026D02712222D1220FA121E9360031226
:101A0F001D78EA20E41E540FF874002828F582751B
:101A1F008301E0F80582E08883F58274030582F084
:101A2F00EA021A4B20E11120E007750F03EA021AB0
:101A3F004B751703EA021A4B751F03EA121F39C0C1
:061A4F0027C026D211227F
:1014A400E8C403248CF582758302C2AFE020E730E0
:1014B40030E303D2AF2204F0058205820582E00402
:1014C40054EFA882758300F582E9F0E5820454EFB5
:1014D4007583028882F0F582758300EAF0D2AF2228
:1014E40004F005820582E0F80454EFF07583008867
:1014F40082E0F521D2AF541F23232400758302F523
:1015040082E054FEF0D026D02712222D1220FAE5D4
:101514002120E427540FF874002828F582758301EC
:10152400E0F80582E08883F58274010582F0058283
:10153400E0F8A3E0F583888202156620E11B20E031
:101544000C750F01850D83850E82021566751701D2
:10155400851583851682021566751F01851D838591
:101564001E82E9F0A3EAF0E521121F39C027C02644
:03157400D211226F
:10182600E8C403248CF5827583020582E0700122E8
:1018360014F0058205820582A882E0F58275830090
:10184600E0F521E582540FB40F07E58254F0021843
:101856005AE582048882758302F0E521541F23230A
:101866002400F582758302D026D02712222D058208
:10187600E0547FF0E52120E41D540FF87400282879
:10188600F582758301E0F80582E08883F5827406A7
:101896000582F00218B120E10F20E006750F06025E
:1018A60018B17517060218B1751F06E521121F3902
:0718B600C027C026D2112259
:101F390075830220E72520E6110533853582F005F2
:101F490035E535B45C3975354C220536853882F06E
:101F59000538E538B46C2875385C2220E611053956
:101F6900853B82F0053BE53BB47C14753B6C22054F
:101F79003C853E82F0053EE53EB48C03753E7C22ED
:101FD400C228C2AFF52185D026858327858228E5CE
:101FE40031C3941D400EE5218526D085278385289D
:101FF40082D2AF22E531246EF58275830174F2F04A
:10200400E5312403F531201202D28DE5218526D055
:09201400852783852882D2AF22C2
:10055D00E5082484F582E43403F583E00508229050
:10056D000381302503900384E475F00112174802CE
:10057D0016F0201EE97F2ED21E8018EF540F249006
:10058D00D43440D4FF30220BEF24BFB41A005003F3
:10059D002461FFE50960021509050CE50C700205E3
:1005AD000B30250E900381E475F001121748EF0210
:1005BD0017360221617403D2258003E4C225F508A4
:1005CD0090038112175FE4F509F50BF50CE5096051
:1005DD00077F201205A080F5750AFFC21FC21EC23B
:1005ED0020C221C223C224C22612056CFF700D3019
:1005FD0025057F001205B1AF0CAE0B22B4255FC2ED
:10060D00D5C22212056CFF24D0B40A00501A75F021
:10061D000A780930D50508B6FF0106C6A426F620CE
:10062D00D5047002D22180D924CFB41A00EF500422
:10063D00C2E5D2220207B2D21F80C6D21E80C0D21E
:10064D002080BCD2D580BAD22380B47F201205A0E1
:10065D002020077401B5090040F112055DFF120558
:10066D00A00205DAD226D224809512055DFB120573
:10067D005DFA12055DF94A4B700679837A087BFFA6
:10068D0020202EE509602A7E008E827583001217C8
:10069D000960060EEE650A70F0C2D5EBC0E0EAC047
:1006AD00E0E9C0E0EE1207F9D0E0F9D0E0FAD0E0D1
:1006BD00FB1216F0FF60AAEBC0E0EAC0E0E9C0E073
:1006CD001205A0D0E02401F9D0E03400FAD0E0FB0F
:1006DD00E50A0460DCD50AD980877BFF7A0779F5B6
:1006ED00D220809C791080027908C224C22680080D
:1006FD00D2D5790A8004790AC2D5E50A047002F5CB
:10070D000AE4FAFDFEFF12055DFC7B08201F1312A3
:10071D00055DFD7B10301E0A12055DFE12055DFFA5
:10072D007B20EC3382D592D55013C3E4301E069F47
:10073D00FFE49EFEE4201F039DFDE49CFCE4CBF84A
:10074D00C21FEC700CCFCECDCCE824F8F870F3803E
:10075D0017C3EF33FFEE33FEED33FDEC33FCEB331C
:10076D00FB994002FB0FD8E9EB301F05F8D0E0C430
:10077D0048B21FC0E00AEC4D4E4F78207B0070C28E
:10078D00EAB50A0040BCC0E01207FBD0F0D0E02073
:10079D001F04C4C0E0C4B21FC0F0120589D0F0D54B
:1007AD00F0EB0205DA12176806775306F158064882
:1007BD004C06444206F54F06FD4406FD49065D43D1
:0807CD0007035506E74606E7A5
:1007D5004506E74708A350064C2D06502E06732BF9
:1007E500065423067120088C2A060C480000066B67
:1007F5003F3F3F00790AA2D5202114302309B910C3
:10080500020404B9080104A2D520240250010420E1
:1008150020689220B509005034C0E07F20302119AE
:100825007F30A22072247223500F120852C220C2B8
:1008350024C223C2267F30800F302303E9C0E01293
:1008450005A0302303D0E0F9D0E0B509CC3023175B
:100855007F30B9100C1205A07F583022077F7880B1
:1008650003B908031205A03020057F2D0205A07FDE
:10087500202026F87F2B2024F322922080CF286E7B
:10088500756C6C2900D21F12055D301FF8C21F78E8
:100895000930D50108F602060C2D504349581205BA
:1008A5005D2403B405004001E490089E9312059170
:0D08B500743A120591D2217509040206F172
:1016F000BB010689828A83E0225002E722BBFE02F8
:09170000E32289828A83E493222A
:10170900BB010CE58229F582E5833AF583E0225095
:1017190006E92582F8E622BBFE06E92582F8E222DF
:0D172900E58229F582E5833AF583E49322F9
:10173600BB010689828A83F0225002F722BBFE0192
:02174600F3228C
:10174800F8E0FBA3A3E0F925F0F0E582158270022A
:071758001583E0FA38F022CE
:09175F00EBF0A3EAF0A3E9F0228B
:10176800D083D082F8E4937012740193700DA3A310
:1017780093F8740193F5828883E473740293686024
:06178800EFA3A3A380DF24
:10216100EFB40A07740D12216C740A309811A89902
:10217100B8130CC2983098FDA899C298B811F630DE
:0721810099FDC299F59922B6
:00000001FF
